{
  "_format": "hh-sol-artifact-1",
  "contractName": "DotCatNFT",
  "sourceName": "contracts/DotCatNFT.sol",
  "abi": [
    {
      "inputs": [
        {
          "internalType": "address",
          "name": "dotCatCoinAddress",
          "type": "address"
        }
      ],
      "stateMutability": "nonpayable",
      "type": "constructor"
    },
    {
      "anonymous": false,
      "inputs": [
        {
          "indexed": true,
          "internalType": "address",
          "name": "owner",
          "type": "address"
        },
        {
          "indexed": true,
          "internalType": "address",
          "name": "approved",
          "type": "address"
        },
        {
          "indexed": true,
          "internalType": "uint256",
          "name": "tokenId",
          "type": "uint256"
        }
      ],
      "name": "Approval",
      "type": "event"
    },
    {
      "anonymous": false,
      "inputs": [
        {
          "indexed": true,
          "internalType": "address",
          "name": "owner",
          "type": "address"
        },
        {
          "indexed": true,
          "internalType": "address",
          "name": "operator",
          "type": "address"
        },
        {
          "indexed": false,
          "internalType": "bool",
          "name": "approved",
          "type": "bool"
        }
      ],
      "name": "ApprovalForAll",
      "type": "event"
    },
    {
      "anonymous": false,
      "inputs": [
        {
          "indexed": false,
          "internalType": "uint256",
          "name": "_fromTokenId",
          "type": "uint256"
        },
        {
          "indexed": false,
          "internalType": "uint256",
          "name": "_toTokenId",
          "type": "uint256"
        }
      ],
      "name": "BatchMetadataUpdate",
      "type": "event"
    },
    {
      "anonymous": false,
      "inputs": [
        {
          "indexed": false,
          "internalType": "uint256",
          "name": "_tokenId",
          "type": "uint256"
        }
      ],
      "name": "MetadataUpdate",
      "type": "event"
    },
    {
      "anonymous": false,
      "inputs": [
        {
          "indexed": true,
          "internalType": "address",
          "name": "from",
          "type": "address"
        },
        {
          "indexed": true,
          "internalType": "address",
          "name": "to",
          "type": "address"
        },
        {
          "indexed": true,
          "internalType": "uint256",
          "name": "tokenId",
          "type": "uint256"
        }
      ],
      "name": "Transfer",
      "type": "event"
    },
    {
      "inputs": [
        {
          "internalType": "address",
          "name": "to",
          "type": "address"
        },
        {
          "internalType": "uint256",
          "name": "tokenId",
          "type": "uint256"
        }
      ],
      "name": "approve",
      "outputs": [],
      "stateMutability": "nonpayable",
      "type": "function"
    },
    {
      "inputs": [
        {
          "internalType": "address",
          "name": "owner",
          "type": "address"
        }
      ],
      "name": "balanceOf",
      "outputs": [
        {
          "internalType": "uint256",
          "name": "",
          "type": "uint256"
        }
      ],
      "stateMutability": "view",
      "type": "function"
    },
    {
      "inputs": [
        {
          "internalType": "uint256",
          "name": "tokenId",
          "type": "uint256"
        }
      ],
      "name": "getApproved",
      "outputs": [
        {
          "internalType": "address",
          "name": "",
          "type": "address"
        }
      ],
      "stateMutability": "view",
      "type": "function"
    },
    {
      "inputs": [
        {
          "internalType": "uint256",
          "name": "",
          "type": "uint256"
        }
      ],
      "name": "idToCatStatus",
      "outputs": [
        {
          "internalType": "uint256",
          "name": "tokenId",
          "type": "uint256"
        },
        {
          "internalType": "uint256",
          "name": "level",
          "type": "uint256"
        },
        {
          "internalType": "uint256",
          "name": "offensivePower",
          "type": "uint256"
        },
        {
          "internalType": "uint256",
          "name": "physicalStrength",
          "type": "uint256"
        }
      ],
      "stateMutability": "view",
      "type": "function"
    },
    {
      "inputs": [
        {
          "internalType": "address",
          "name": "owner",
          "type": "address"
        },
        {
          "internalType": "address",
          "name": "operator",
          "type": "address"
        }
      ],
      "name": "isApprovedForAll",
      "outputs": [
        {
          "internalType": "bool",
          "name": "",
          "type": "bool"
        }
      ],
      "stateMutability": "view",
      "type": "function"
    },
    {
      "inputs": [
        {
          "internalType": "uint256",
          "name": "tokenId",
          "type": "uint256"
        }
      ],
      "name": "levelUp",
      "outputs": [],
      "stateMutability": "nonpayable",
      "type": "function"
    },
    {
      "inputs": [],
      "name": "mint",
      "outputs": [],
      "stateMutability": "nonpayable",
      "type": "function"
    },
    {
      "inputs": [
        {
          "internalType": "uint256",
          "name": "amount",
          "type": "uint256"
        }
      ],
      "name": "mintDCCFromDCAT",
      "outputs": [],
      "stateMutability": "nonpayable",
      "type": "function"
    },
    {
      "inputs": [],
      "name": "name",
      "outputs": [
        {
          "internalType": "string",
          "name": "",
          "type": "string"
        }
      ],
      "stateMutability": "view",
      "type": "function"
    },
    {
      "inputs": [
        {
          "internalType": "uint256",
          "name": "tokenId",
          "type": "uint256"
        }
      ],
      "name": "ownerOf",
      "outputs": [
        {
          "internalType": "address",
          "name": "",
          "type": "address"
        }
      ],
      "stateMutability": "view",
      "type": "function"
    },
    {
      "inputs": [
        {
          "internalType": "address",
          "name": "from",
          "type": "address"
        },
        {
          "internalType": "address",
          "name": "to",
          "type": "address"
        },
        {
          "internalType": "uint256",
          "name": "tokenId",
          "type": "uint256"
        }
      ],
      "name": "safeTransferFrom",
      "outputs": [],
      "stateMutability": "nonpayable",
      "type": "function"
    },
    {
      "inputs": [
        {
          "internalType": "address",
          "name": "from",
          "type": "address"
        },
        {
          "internalType": "address",
          "name": "to",
          "type": "address"
        },
        {
          "internalType": "uint256",
          "name": "tokenId",
          "type": "uint256"
        },
        {
          "internalType": "bytes",
          "name": "data",
          "type": "bytes"
        }
      ],
      "name": "safeTransferFrom",
      "outputs": [],
      "stateMutability": "nonpayable",
      "type": "function"
    },
    {
      "inputs": [
        {
          "internalType": "address",
          "name": "operator",
          "type": "address"
        },
        {
          "internalType": "bool",
          "name": "approved",
          "type": "bool"
        }
      ],
      "name": "setApprovalForAll",
      "outputs": [],
      "stateMutability": "nonpayable",
      "type": "function"
    },
    {
      "inputs": [
        {
          "internalType": "bytes4",
          "name": "interfaceId",
          "type": "bytes4"
        }
      ],
      "name": "supportsInterface",
      "outputs": [
        {
          "internalType": "bool",
          "name": "",
          "type": "bool"
        }
      ],
      "stateMutability": "view",
      "type": "function"
    },
    {
      "inputs": [],
      "name": "symbol",
      "outputs": [
        {
          "internalType": "string",
          "name": "",
          "type": "string"
        }
      ],
      "stateMutability": "view",
      "type": "function"
    },
    {
      "inputs": [
        {
          "internalType": "uint256",
          "name": "tokenId",
          "type": "uint256"
        }
      ],
      "name": "tokenURI",
      "outputs": [
        {
          "internalType": "string",
          "name": "",
          "type": "string"
        }
      ],
      "stateMutability": "view",
      "type": "function"
    },
    {
      "inputs": [
        {
          "internalType": "address",
          "name": "from",
          "type": "address"
        },
        {
          "internalType": "address",
          "name": "to",
          "type": "address"
        },
        {
          "internalType": "uint256",
          "name": "tokenId",
          "type": "uint256"
        }
      ],
      "name": "transferFrom",
      "outputs": [],
      "stateMutability": "nonpayable",
      "type": "function"
    }
  ],
  "bytecode": "0x60806040526040518061012001604052806040518060400160405280600381526020017f726564000000000000000000000000000000000000000000000000000000000081525081526020016040518060400160405280600681526020017f6f72616e6765000000000000000000000000000000000000000000000000000081525081526020016040518060400160405280600481526020017f676f6c640000000000000000000000000000000000000000000000000000000081525081526020016040518060400160405280600581526020017f62726f776e00000000000000000000000000000000000000000000000000000081525081526020016040518060400160405280600481526020017f626c75650000000000000000000000000000000000000000000000000000000081525081526020016040518060400160405280600681526020017f707572706c65000000000000000000000000000000000000000000000000000081525081526020016040518060400160405280600581526020017f677265656e00000000000000000000000000000000000000000000000000000081525081526020016040518060400160405280600481526020017f677261790000000000000000000000000000000000000000000000000000000081525081526020016040518060400160405280600581526020017f626c61636b00000000000000000000000000000000000000000000000000000081525081525060099060096200023392919062000341565b503480156200024157600080fd5b50604051620049c4380380620049c4833981810160405281019062000267919062000498565b6040518060400160405280600981526020017f446f744361744e465400000000000000000000000000000000000000000000008152506040518060400160405280600481526020017f44434154000000000000000000000000000000000000000000000000000000008152508160009081620002e4919062000744565b508060019081620002f6919062000744565b50505080600760006101000a81548173ffffffffffffffffffffffffffffffffffffffff021916908373ffffffffffffffffffffffffffffffffffffffff160217905550506200082b565b8280548282559060005260206000209081019282156200038e579160200282015b828111156200038d5782518290816200037c919062000744565b509160200191906001019062000362565b5b5090506200039d9190620003a1565b5090565b5b80821115620003c55760008181620003bb9190620003c9565b50600101620003a2565b5090565b508054620003d79062000533565b6000825580601f10620003eb57506200040c565b601f0160209004906000526020600020908101906200040b91906200040f565b5b50565b5b808211156200042a57600081600090555060010162000410565b5090565b600080fd5b600073ffffffffffffffffffffffffffffffffffffffff82169050919050565b6000620004608262000433565b9050919050565b620004728162000453565b81146200047e57600080fd5b50565b600081519050620004928162000467565b92915050565b600060208284031215620004b157620004b06200042e565b5b6000620004c18482850162000481565b91505092915050565b600081519050919050565b7f4e487b7100000000000000000000000000000000000000000000000000000000600052604160045260246000fd5b7f4e487b7100000000000000000000000000000000000000000000000000000000600052602260045260246000fd5b600060028204905060018216806200054c57607f821691505b60208210810362000562576200056162000504565b5b50919050565b60008190508160005260206000209050919050565b60006020601f8301049050919050565b600082821b905092915050565b600060088302620005cc7fffffffffffffffffffffffffffffffffffffffffffffffffffffffffffffffff826200058d565b620005d886836200058d565b95508019841693508086168417925050509392505050565b6000819050919050565b6000819050919050565b6000620006256200061f6200061984620005f0565b620005fa565b620005f0565b9050919050565b6000819050919050565b620006418362000604565b6200065962000650826200062c565b8484546200059a565b825550505050565b600090565b6200067062000661565b6200067d81848462000636565b505050565b5b81811015620006a5576200069960008262000666565b60018101905062000683565b5050565b601f821115620006f457620006be8162000568565b620006c9846200057d565b81016020851015620006d9578190505b620006f1620006e8856200057d565b83018262000682565b50505b505050565b600082821c905092915050565b60006200071960001984600802620006f9565b1980831691505092915050565b600062000734838362000706565b9150826002028217905092915050565b6200074f82620004ca565b67ffffffffffffffff8111156200076b576200076a620004d5565b5b62000777825462000533565b62000784828285620006a9565b600060209050601f831160018114620007bc5760008415620007a7578287015190505b620007b3858262000726565b86555062000823565b601f198416620007cc8662000568565b60005b82811015620007f657848901518255600182019150602085019450602081019050620007cf565b8683101562000816578489015162000812601f89168262000706565b8355505b6001600288020188555050505b505050505050565b614189806200083b6000396000f3fe608060405234801561001057600080fd5b506004361061010b5760003560e01c806342842e0e116100a2578063a22cb46511610071578063a22cb465146102a2578063b88d4fde146102be578063befd4341146102da578063c87b56dd1461030d578063e985e9c51461033d5761010b565b806342842e0e146102085780636352211e1461022457806370a082311461025457806395d89b41146102845761010b565b80630ce90ec2116100de5780630ce90ec2146101aa5780631249c58b146101c657806323b872dd146101d0578063365622e9146101ec5761010b565b806301ffc9a71461011057806306fdde0314610140578063081812fc1461015e578063095ea7b31461018e575b600080fd5b61012a600480360381019061012591906123e0565b61036d565b6040516101379190612428565b60405180910390f35b6101486103ce565b60405161015591906124d3565b60405180910390f35b6101786004803603810190610173919061252b565b610460565b6040516101859190612599565b60405180910390f35b6101a860048036038101906101a391906125e0565b6104a6565b005b6101c460048036038101906101bf919061252b565b6105bd565b005b6101ce61081e565b005b6101ea60048036038101906101e59190612620565b6109c1565b005b6102066004803603810190610201919061252b565b610a21565b005b610222600480360381019061021d9190612620565b610ab3565b005b61023e6004803603810190610239919061252b565b610ad3565b60405161024b9190612599565b60405180910390f35b61026e60048036038101906102699190612673565b610b59565b60405161027b91906126af565b60405180910390f35b61028c610c10565b60405161029991906124d3565b60405180910390f35b6102bc60048036038101906102b791906126f6565b610ca2565b005b6102d860048036038101906102d3919061286b565b610cb8565b005b6102f460048036038101906102ef919061252b565b610d1a565b60405161030494939291906128ee565b60405180910390f35b6103276004803603810190610322919061252b565b610d4a565b60405161033491906124d3565b60405180910390f35b61035760048036038101906103529190612933565b610e5c565b6040516103649190612428565b60405180910390f35b6000634906490660e01b7bffffffffffffffffffffffffffffffffffffffffffffffffffffffff1916827bffffffffffffffffffffffffffffffffffffffffffffffffffffffff191614806103c757506103c682610ef0565b5b9050919050565b6060600080546103dd906129a2565b80601f0160208091040260200160405190810160405280929190818152602001828054610409906129a2565b80156104565780601f1061042b57610100808354040283529160200191610456565b820191906000526020600020905b81548152906001019060200180831161043957829003601f168201915b5050505050905090565b600061046b82610fd2565b6004600083815260200190815260200160002060009054906101000a900473ffffffffffffffffffffffffffffffffffffffff169050919050565b60006104b182610ad3565b90508073ffffffffffffffffffffffffffffffffffffffff168373ffffffffffffffffffffffffffffffffffffffff1603610521576040517f08c379a000000000000000000000000000000000000000000000000000000000815260040161051890612a45565b60405180910390fd5b8073ffffffffffffffffffffffffffffffffffffffff1661054061101d565b73ffffffffffffffffffffffffffffffffffffffff16148061056f575061056e8161056961101d565b610e5c565b5b6105ae576040517f08c379a00000000000000000000000000000000000000000000000000000000081526004016105a590612ad7565b60405180910390fd5b6105b88383611025565b505050565b3373ffffffffffffffffffffffffffffffffffffffff166105dd82610ad3565b73ffffffffffffffffffffffffffffffffffffffff16146105fd57600080fd5b6001600a600083815260200190815260200160002060010160008282546106249190612b26565b92505081905550600160038242604051602001610642929190612b7b565b6040516020818303038152906040528051906020012060001c6106659190612bd6565b61066f9190612b26565b600a600083815260200190815260200160002060020160008282546106949190612b26565b925050819055506001600382836106ab9190612b26565b426040516020016106bd929190612b7b565b6040516020818303038152906040528051906020012060001c6106e09190612bd6565b6106ea9190612b26565b600a6000838152602001908152602001600020600301600082825461070f9190612b26565b925050819055506000610721826110de565b9050600061072f8284611272565b9050600061073c82611304565b60405160200161074c9190612c8f565b60405160208183030381529060405290506107678482611467565b600760009054906101000a900473ffffffffffffffffffffffffffffffffffffffff1673ffffffffffffffffffffffffffffffffffffffff16639dc29fac33600a60008881526020019081526020016000206001015460016107c99190612b26565b6040518363ffffffff1660e01b81526004016107e6929190612cb1565b600060405180830381600087803b15801561080057600080fd5b505af1158015610814573d6000803e3d6000fd5b5050505050505050565b610828600861150b565b60006108346008611521565b9050610840338261152f565b6040518060a001604052808281526020016001815260200160018152602001600a815260200161086f8361154d565b815250600a6000838152602001908152602001600020600082015181600001556020820151816001015560408201518160020155606082015181600301556080820151816004019060056108c49291906122f5565b5090505060006108d3826110de565b905060006108e18284611272565b905060006108ee82611304565b6040516020016108fe9190612c8f565b60405160208183030381529060405290506109198482611467565b600161092433610b59565b11156109bb57600760009054906101000a900473ffffffffffffffffffffffffffffffffffffffff1673ffffffffffffffffffffffffffffffffffffffff16639dc29fac33601e6040518363ffffffff1660e01b8152600401610988929190612d1f565b600060405180830381600087803b1580156109a257600080fd5b505af11580156109b6573d6000803e3d6000fd5b505050505b50505050565b6109d26109cc61101d565b826115e9565b610a11576040517f08c379a0000000000000000000000000000000000000000000000000000000008152600401610a0890612dba565b60405180910390fd5b610a1c83838361167e565b505050565b600760009054906101000a900473ffffffffffffffffffffffffffffffffffffffff1673ffffffffffffffffffffffffffffffffffffffff166340c10f1933836040518363ffffffff1660e01b8152600401610a7e929190612cb1565b600060405180830381600087803b158015610a9857600080fd5b505af1158015610aac573d6000803e3d6000fd5b5050505050565b610ace83838360405180602001604052806000815250610cb8565b505050565b600080610adf83611977565b9050600073ffffffffffffffffffffffffffffffffffffffff168173ffffffffffffffffffffffffffffffffffffffff1603610b50576040517f08c379a0000000000000000000000000000000000000000000000000000000008152600401610b4790612e26565b60405180910390fd5b80915050919050565b60008073ffffffffffffffffffffffffffffffffffffffff168273ffffffffffffffffffffffffffffffffffffffff1603610bc9576040517f08c379a0000000000000000000000000000000000000000000000000000000008152600401610bc090612eb8565b60405180910390fd5b600360008373ffffffffffffffffffffffffffffffffffffffff1673ffffffffffffffffffffffffffffffffffffffff168152602001908152602001600020549050919050565b606060018054610c1f906129a2565b80601f0160208091040260200160405190810160405280929190818152602001828054610c4b906129a2565b8015610c985780601f10610c6d57610100808354040283529160200191610c98565b820191906000526020600020905b815481529060010190602001808311610c7b57829003601f168201915b5050505050905090565b610cb4610cad61101d565b83836119b4565b5050565b610cc9610cc361101d565b836115e9565b610d08576040517f08c379a0000000000000000000000000000000000000000000000000000000008152600401610cff90612dba565b60405180910390fd5b610d1484848484611b20565b50505050565b600a6020528060005260406000206000915090508060000154908060010154908060020154908060030154905084565b6060610d5582610fd2565b6000600660008481526020019081526020016000208054610d75906129a2565b80601f0160208091040260200160405190810160405280929190818152602001828054610da1906129a2565b8015610dee5780601f10610dc357610100808354040283529160200191610dee565b820191906000526020600020905b815481529060010190602001808311610dd157829003601f168201915b505050505090506000610dff611b7c565b90506000815103610e14578192505050610e57565b600082511115610e49578082604051602001610e31929190612ed8565b60405160208183030381529060405292505050610e57565b610e5284611b93565b925050505b919050565b6000600560008473ffffffffffffffffffffffffffffffffffffffff1673ffffffffffffffffffffffffffffffffffffffff16815260200190815260200160002060008373ffffffffffffffffffffffffffffffffffffffff1673ffffffffffffffffffffffffffffffffffffffff16815260200190815260200160002060009054906101000a900460ff16905092915050565b60007f80ac58cd000000000000000000000000000000000000000000000000000000007bffffffffffffffffffffffffffffffffffffffffffffffffffffffff1916827bffffffffffffffffffffffffffffffffffffffffffffffffffffffff19161480610fbb57507f5b5e139f000000000000000000000000000000000000000000000000000000007bffffffffffffffffffffffffffffffffffffffffffffffffffffffff1916827bffffffffffffffffffffffffffffffffffffffffffffffffffffffff1916145b80610fcb5750610fca82611bfb565b5b9050919050565b610fdb81611c65565b61101a576040517f08c379a000000000000000000000000000000000000000000000000000000000815260040161101190612e26565b60405180910390fd5b50565b600033905090565b816004600083815260200190815260200160002060006101000a81548173ffffffffffffffffffffffffffffffffffffffff021916908373ffffffffffffffffffffffffffffffffffffffff160217905550808273ffffffffffffffffffffffffffffffffffffffff1661109883610ad3565b73ffffffffffffffffffffffffffffffffffffffff167f8c5be1e5ebec7d5bd14f71427d1e84f3dd0314c0f7b2291e5b200ac8c7c3b92560405160405180910390a45050565b60606009600a600084815260200190815260200160002060040160006005811061110b5761110a612efc565b5b01548154811061111e5761111d612efc565b5b906000526020600020016009600a600085815260200190815260200160002060040160016005811061115357611152612efc565b5b01548154811061116657611165612efc565b5b906000526020600020016009600a600086815260200190815260200160002060040160026005811061119b5761119a612efc565b5b0154815481106111ae576111ad612efc565b5b906000526020600020016009600a60008781526020019081526020016000206004016003600581106111e3576111e2612efc565b5b0154815481106111f6576111f5612efc565b5b906000526020600020016009600a600088815260200190815260200160002060040160046005811061122b5761122a612efc565b5b01548154811061123e5761123d612efc565b5b9060005260206000200160405160200161125c959493929190613607565b6040516020818303038152906040529050919050565b606061127d83611304565b61129c600a600085815260200190815260200160002060010154611ca6565b6112bb600a600086815260200190815260200160002060020154611ca6565b6112da600a600087815260200190815260200160002060030154611ca6565b6040516020016112ed949392919061390a565b604051602081830303815290604052905092915050565b6060600082510361132657604051806020016040528060008152509050611462565b600060405180606001604052806040815260200161411460409139905060006003600285516113559190612b26565b61135f919061398a565b600461136b91906139bb565b67ffffffffffffffff81111561138457611383612740565b5b6040519080825280601f01601f1916602001820160405280156113b65781602001600182028036833780820191505090505b509050600182016020820185865187015b80821015611422576003820191508151603f8160121c168501518453600184019350603f81600c1c168501518453600184019350603f8160061c168501518453600184019350603f81168501518453600184019350506113c7565b505060038651066001811461143e576002811461145157611459565b603d6001830353603d6002830353611459565b603d60018303535b50505080925050505b919050565b61147082611c65565b6114af576040517f08c379a00000000000000000000000000000000000000000000000000000000081526004016114a690613a6f565b60405180910390fd5b806006600084815260200190815260200160002090816114cf9190613c1c565b507ff8e1a15aba9398e019f0b49df1a4fde98ee17ae345cb5f6b5e2c27f5033e8ce7826040516114ff91906126af565b60405180910390a15050565b6001816000016000828254019250508190555050565b600081600001549050919050565b611549828260405180602001604052806000815250611d74565b5050565b611555612335565b61155d612335565b60005b60058110156115df57600980549050818561157b9190612b26565b4260405160200161158d929190612b7b565b6040516020818303038152906040528051906020012060001c6115b09190612bd6565b8282600581106115c3576115c2612efc565b5b60200201818152505080806115d790613cee565b915050611560565b5080915050919050565b6000806115f583610ad3565b90508073ffffffffffffffffffffffffffffffffffffffff168473ffffffffffffffffffffffffffffffffffffffff16148061163757506116368185610e5c565b5b8061167557508373ffffffffffffffffffffffffffffffffffffffff1661165d84610460565b73ffffffffffffffffffffffffffffffffffffffff16145b91505092915050565b8273ffffffffffffffffffffffffffffffffffffffff1661169e82610ad3565b73ffffffffffffffffffffffffffffffffffffffff16146116f4576040517f08c379a00000000000000000000000000000000000000000000000000000000081526004016116eb90613da8565b60405180910390fd5b600073ffffffffffffffffffffffffffffffffffffffff168273ffffffffffffffffffffffffffffffffffffffff1603611763576040517f08c379a000000000000000000000000000000000000000000000000000000000815260040161175a90613e3a565b60405180910390fd5b6117708383836001611dcf565b8273ffffffffffffffffffffffffffffffffffffffff1661179082610ad3565b73ffffffffffffffffffffffffffffffffffffffff16146117e6576040517f08c379a00000000000000000000000000000000000000000000000000000000081526004016117dd90613da8565b60405180910390fd5b6004600082815260200190815260200160002060006101000a81549073ffffffffffffffffffffffffffffffffffffffff02191690556001600360008573ffffffffffffffffffffffffffffffffffffffff1673ffffffffffffffffffffffffffffffffffffffff168152602001908152602001600020600082825403925050819055506001600360008473ffffffffffffffffffffffffffffffffffffffff1673ffffffffffffffffffffffffffffffffffffffff16815260200190815260200160002060008282540192505081905550816002600083815260200190815260200160002060006101000a81548173ffffffffffffffffffffffffffffffffffffffff021916908373ffffffffffffffffffffffffffffffffffffffff160217905550808273ffffffffffffffffffffffffffffffffffffffff168473ffffffffffffffffffffffffffffffffffffffff167fddf252ad1be2c89b69c2b068fc378daa952ba7f163c4a11628f55a4df523b3ef60405160405180910390a46119728383836001611dd5565b505050565b60006002600083815260200190815260200160002060009054906101000a900473ffffffffffffffffffffffffffffffffffffffff169050919050565b8173ffffffffffffffffffffffffffffffffffffffff168373ffffffffffffffffffffffffffffffffffffffff1603611a22576040517f08c379a0000000000000000000000000000000000000000000000000000000008152600401611a1990613ea6565b60405180910390fd5b80600560008573ffffffffffffffffffffffffffffffffffffffff1673ffffffffffffffffffffffffffffffffffffffff16815260200190815260200160002060008473ffffffffffffffffffffffffffffffffffffffff1673ffffffffffffffffffffffffffffffffffffffff16815260200190815260200160002060006101000a81548160ff0219169083151502179055508173ffffffffffffffffffffffffffffffffffffffff168373ffffffffffffffffffffffffffffffffffffffff167f17307eab39ab6107e8899845ad3d59bd9653f200f220920489ca2b5937696c3183604051611b139190612428565b60405180910390a3505050565b611b2b84848461167e565b611b3784848484611ddb565b611b76576040517f08c379a0000000000000000000000000000000000000000000000000000000008152600401611b6d90613f38565b60405180910390fd5b50505050565b606060405180602001604052806000815250905090565b6060611b9e82610fd2565b6000611ba8611b7c565b90506000815111611bc85760405180602001604052806000815250611bf3565b80611bd284611ca6565b604051602001611be3929190612ed8565b6040516020818303038152906040525b915050919050565b60007f01ffc9a7000000000000000000000000000000000000000000000000000000007bffffffffffffffffffffffffffffffffffffffffffffffffffffffff1916827bffffffffffffffffffffffffffffffffffffffffffffffffffffffff1916149050919050565b60008073ffffffffffffffffffffffffffffffffffffffff16611c8783611977565b73ffffffffffffffffffffffffffffffffffffffff1614159050919050565b606060006001611cb584611f62565b01905060008167ffffffffffffffff811115611cd457611cd3612740565b5b6040519080825280601f01601f191660200182016040528015611d065781602001600182028036833780820191505090505b509050600082602001820190505b600115611d69578080600190039150507f3031323334353637383961626364656600000000000000000000000000000000600a86061a8153600a8581611d5d57611d5c612ba7565b5b04945060008503611d14575b819350505050919050565b611d7e83836120b5565b611d8b6000848484611ddb565b611dca576040517f08c379a0000000000000000000000000000000000000000000000000000000008152600401611dc190613f38565b60405180910390fd5b505050565b50505050565b50505050565b6000611dfc8473ffffffffffffffffffffffffffffffffffffffff166122d2565b15611f55578373ffffffffffffffffffffffffffffffffffffffff1663150b7a02611e2561101d565b8786866040518563ffffffff1660e01b8152600401611e479493929190613fad565b6020604051808303816000875af1925050508015611e8357506040513d601f19601f82011682018060405250810190611e80919061400e565b60015b611f05573d8060008114611eb3576040519150601f19603f3d011682016040523d82523d6000602084013e611eb8565b606091505b506000815103611efd576040517f08c379a0000000000000000000000000000000000000000000000000000000008152600401611ef490613f38565b60405180910390fd5b805181602001fd5b63150b7a0260e01b7bffffffffffffffffffffffffffffffffffffffffffffffffffffffff1916817bffffffffffffffffffffffffffffffffffffffffffffffffffffffff191614915050611f5a565b600190505b949350505050565b600080600090507a184f03e93ff9f4daa797ed6e38ed64bf6a1f0100000000000000008310611fc0577a184f03e93ff9f4daa797ed6e38ed64bf6a1f0100000000000000008381611fb657611fb5612ba7565b5b0492506040810190505b6d04ee2d6d415b85acef81000000008310611ffd576d04ee2d6d415b85acef81000000008381611ff357611ff2612ba7565b5b0492506020810190505b662386f26fc10000831061202c57662386f26fc10000838161202257612021612ba7565b5b0492506010810190505b6305f5e1008310612055576305f5e100838161204b5761204a612ba7565b5b0492506008810190505b612710831061207a5761271083816120705761206f612ba7565b5b0492506004810190505b6064831061209d576064838161209357612092612ba7565b5b0492506002810190505b600a83106120ac576001810190505b80915050919050565b600073ffffffffffffffffffffffffffffffffffffffff168273ffffffffffffffffffffffffffffffffffffffff1603612124576040517f08c379a000000000000000000000000000000000000000000000000000000000815260040161211b90614087565b60405180910390fd5b61212d81611c65565b1561216d576040517f08c379a0000000000000000000000000000000000000000000000000000000008152600401612164906140f3565b60405180910390fd5b61217b600083836001611dcf565b61218481611c65565b156121c4576040517f08c379a00000000000000000000000000000000000000000000000000000000081526004016121bb906140f3565b60405180910390fd5b6001600360008473ffffffffffffffffffffffffffffffffffffffff1673ffffffffffffffffffffffffffffffffffffffff16815260200190815260200160002060008282540192505081905550816002600083815260200190815260200160002060006101000a81548173ffffffffffffffffffffffffffffffffffffffff021916908373ffffffffffffffffffffffffffffffffffffffff160217905550808273ffffffffffffffffffffffffffffffffffffffff16600073ffffffffffffffffffffffffffffffffffffffff167fddf252ad1be2c89b69c2b068fc378daa952ba7f163c4a11628f55a4df523b3ef60405160405180910390a46122ce600083836001611dd5565b5050565b6000808273ffffffffffffffffffffffffffffffffffffffff163b119050919050565b8260058101928215612324579160200282015b82811115612323578251825591602001919060010190612308565b5b5090506123319190612357565b5090565b6040518060a00160405280600590602082028036833780820191505090505090565b5b80821115612370576000816000905550600101612358565b5090565b6000604051905090565b600080fd5b600080fd5b60007fffffffff0000000000000000000000000000000000000000000000000000000082169050919050565b6123bd81612388565b81146123c857600080fd5b50565b6000813590506123da816123b4565b92915050565b6000602082840312156123f6576123f561237e565b5b6000612404848285016123cb565b91505092915050565b60008115159050919050565b6124228161240d565b82525050565b600060208201905061243d6000830184612419565b92915050565b600081519050919050565b600082825260208201905092915050565b60005b8381101561247d578082015181840152602081019050612462565b60008484015250505050565b6000601f19601f8301169050919050565b60006124a582612443565b6124af818561244e565b93506124bf81856020860161245f565b6124c881612489565b840191505092915050565b600060208201905081810360008301526124ed818461249a565b905092915050565b6000819050919050565b612508816124f5565b811461251357600080fd5b50565b600081359050612525816124ff565b92915050565b6000602082840312156125415761254061237e565b5b600061254f84828501612516565b91505092915050565b600073ffffffffffffffffffffffffffffffffffffffff82169050919050565b600061258382612558565b9050919050565b61259381612578565b82525050565b60006020820190506125ae600083018461258a565b92915050565b6125bd81612578565b81146125c857600080fd5b50565b6000813590506125da816125b4565b92915050565b600080604083850312156125f7576125f661237e565b5b6000612605858286016125cb565b925050602061261685828601612516565b9150509250929050565b6000806000606084860312156126395761263861237e565b5b6000612647868287016125cb565b9350506020612658868287016125cb565b925050604061266986828701612516565b9150509250925092565b6000602082840312156126895761268861237e565b5b6000612697848285016125cb565b91505092915050565b6126a9816124f5565b82525050565b60006020820190506126c460008301846126a0565b92915050565b6126d38161240d565b81146126de57600080fd5b50565b6000813590506126f0816126ca565b92915050565b6000806040838503121561270d5761270c61237e565b5b600061271b858286016125cb565b925050602061272c858286016126e1565b9150509250929050565b600080fd5b600080fd5b7f4e487b7100000000000000000000000000000000000000000000000000000000600052604160045260246000fd5b61277882612489565b810181811067ffffffffffffffff8211171561279757612796612740565b5b80604052505050565b60006127aa612374565b90506127b6828261276f565b919050565b600067ffffffffffffffff8211156127d6576127d5612740565b5b6127df82612489565b9050602081019050919050565b82818337600083830152505050565b600061280e612809846127bb565b6127a0565b90508281526020810184848401111561282a5761282961273b565b5b6128358482856127ec565b509392505050565b600082601f83011261285257612851612736565b5b81356128628482602086016127fb565b91505092915050565b600080600080608085870312156128855761288461237e565b5b6000612893878288016125cb565b94505060206128a4878288016125cb565b93505060406128b587828801612516565b925050606085013567ffffffffffffffff8111156128d6576128d5612383565b5b6128e28782880161283d565b91505092959194509250565b600060808201905061290360008301876126a0565b61291060208301866126a0565b61291d60408301856126a0565b61292a60608301846126a0565b95945050505050565b6000806040838503121561294a5761294961237e565b5b6000612958858286016125cb565b9250506020612969858286016125cb565b9150509250929050565b7f4e487b7100000000000000000000000000000000000000000000000000000000600052602260045260246000fd5b600060028204905060018216806129ba57607f821691505b6020821081036129cd576129cc612973565b5b50919050565b7f4552433732313a20617070726f76616c20746f2063757272656e74206f776e6560008201527f7200000000000000000000000000000000000000000000000000000000000000602082015250565b6000612a2f60218361244e565b9150612a3a826129d3565b604082019050919050565b60006020820190508181036000830152612a5e81612a22565b9050919050565b7f4552433732313a20617070726f76652063616c6c6572206973206e6f7420746f60008201527f6b656e206f776e6572206f7220617070726f76656420666f7220616c6c000000602082015250565b6000612ac1603d8361244e565b9150612acc82612a65565b604082019050919050565b60006020820190508181036000830152612af081612ab4565b9050919050565b7f4e487b7100000000000000000000000000000000000000000000000000000000600052601160045260246000fd5b6000612b31826124f5565b9150612b3c836124f5565b9250828201905080821115612b5457612b53612af7565b5b92915050565b6000819050919050565b612b75612b70826124f5565b612b5a565b82525050565b6000612b878285612b64565b602082019150612b978284612b64565b6020820191508190509392505050565b7f4e487b7100000000000000000000000000000000000000000000000000000000600052601260045260246000fd5b6000612be1826124f5565b9150612bec836124f5565b925082612bfc57612bfb612ba7565b5b828206905092915050565b600081905092915050565b7f646174613a6170706c69636174696f6e2f6a736f6e3b6261736536342c000000600082015250565b6000612c48601d83612c07565b9150612c5382612c12565b601d82019050919050565b6000612c6982612443565b612c738185612c07565b9350612c8381856020860161245f565b80840191505092915050565b6000612c9a82612c3b565b9150612ca68284612c5e565b915081905092915050565b6000604082019050612cc6600083018561258a565b612cd360208301846126a0565b9392505050565b6000819050919050565b6000819050919050565b6000612d09612d04612cff84612cda565b612ce4565b6124f5565b9050919050565b612d1981612cee565b82525050565b6000604082019050612d34600083018561258a565b612d416020830184612d10565b9392505050565b7f4552433732313a2063616c6c6572206973206e6f7420746f6b656e206f776e6560008201527f72206f7220617070726f76656400000000000000000000000000000000000000602082015250565b6000612da4602d8361244e565b9150612daf82612d48565b604082019050919050565b60006020820190508181036000830152612dd381612d97565b9050919050565b7f4552433732313a20696e76616c696420746f6b656e2049440000000000000000600082015250565b6000612e1060188361244e565b9150612e1b82612dda565b602082019050919050565b60006020820190508181036000830152612e3f81612e03565b9050919050565b7f4552433732313a2061646472657373207a65726f206973206e6f74206120766160008201527f6c6964206f776e65720000000000000000000000000000000000000000000000602082015250565b6000612ea260298361244e565b9150612ead82612e46565b604082019050919050565b60006020820190508181036000830152612ed181612e95565b9050919050565b6000612ee48285612c5e565b9150612ef08284612c5e565b91508190509392505050565b7f4e487b7100000000000000000000000000000000000000000000000000000000600052603260045260246000fd5b7f3c7376672077696474683d2733323027206865696768743d273332302720786d60008201527f6c6e733d27687474703a2f2f7777772e77332e6f72672f323030302f7376672760208201527f3e3c706f6c79676f6e207374796c653d2766696c6c3a00000000000000000000604082015250565b6000612fad605683612c07565b9150612fb882612f2b565b605682019050919050565b60008190508160005260206000209050919050565b60008154612fe5816129a2565b612fef8186612c07565b9450600182166000811461300a576001811461301f57613052565b60ff1983168652811515820286019350613052565b61302885612fc3565b60005b8381101561304a5781548189015260018201915060208101905061302b565b838801955050505b50505092915050565b7f2720706f696e74733d2732302c2038302034302c2038302034302c203430203660008201527f302c2034302036302c2032302038302c2032302038302c203430203130302c2060208201527f3430203130302c203630203230302c203630203230302c203430203232302c2060408201527f3430203232302c203230203234302c203230203234302c203430203236302c2060608201527f3430203236302c203830203238302c203830203238302c20313830203236302c60808201527f20313830203236302c20323030203232302c20323030203232302c203232302060a08201527f3230302c20323230203230302c20323430203234302c20323430203234302c2060c08201527f323630203236302c20323630203236302c20323430203238302c20323430203260e08201527f38302c20323230203330302c20323230203330302c20323630203238302c20326101008201527f3630203238302c20323830203234302c20323830203234302c203330302038306101208201527f2c203330302038302c20323830203130302c20323830203130302c20323230206101408201527f38302c203232302038302c203230302034302c203230302034302c20313830206101608201527f32302c20313830272f3e3c706f6c79676f6e207374796c653d2766696c6c3a776101808201527f68697465000000000000000000000000000000000000000000000000000000006101a082015250565b60006132866101a483612c07565b91506132918261305b565b6101a482019050919050565b7f2720706f696e74733d2734302c203130302036302c203130302036302c20383060008201527f203132302c203830203132302c203136302034302c20313630272f3e3c706f6c60208201527f79676f6e207374796c653d2766696c6c3a000000000000000000000000000000604082015250565b600061331f605183612c07565b915061332a8261329d565b605182019050919050565b7f2720706f696e74733d2736302c203130302038302c203130302038302c20313460008201527f302036302c20313430272f3e3c706f6c79676f6e207374796c653d2766696c6c60208201527f3a77686974650000000000000000000000000000000000000000000000000000604082015250565b60006133b7604683612c07565b91506133c282613335565b604682019050919050565b7f2720706f696e74733d273136302c20313030203138302c20313030203138302c60008201527f203830203234302c203830203234302c20313630203136302c20313630272f3e60208201527f3c706f6c79676f6e207374796c653d2766696c6c3a0000000000000000000000604082015250565b600061344f605583612c07565b915061345a826133cd565b605582019050919050565b7f2720706f696e74733d273138302c20313030203230302c20313030203230302c60008201527f20313430203138302c20313430272f3e3c706f6c79676f6e207374796c653d2760208201527f66696c6c3a000000000000000000000000000000000000000000000000000000604082015250565b60006134e7604583612c07565b91506134f282613465565b604582019050919050565b7f2720706f696e74733d273130302c20323230203230302c20323230203230302c60008201527f20323430203130302c20323430272f3e3c706f6c79676f6e207374796c653d2760208201527f66696c6c3a000000000000000000000000000000000000000000000000000000604082015250565b600061357f604583612c07565b915061358a826134fd565b604582019050919050565b7f2720706f696e74733d273132302c203232302c203134302c203232302031343060008201527f2c20323430203132302c20323430272f3e3c2f7376673e000000000000000000602082015250565b60006135f1603783612c07565b91506135fc82613595565b603782019050919050565b600061361282612fa0565b915061361e8288612fd8565b915061362982613278565b915061363482613312565b91506136408287612fd8565b915061364b826133aa565b915061365682613442565b91506136628286612fd8565b915061366d826134da565b91506136798285612fd8565b915061368482613572565b91506136908284612fd8565b915061369b826135e4565b91508190509695505050505050565b7f7b22696d616765223a2022646174613a696d6167652f7376672b786d6c3b626160008201527f736536342c000000000000000000000000000000000000000000000000000000602082015250565b6000613706602583612c07565b9150613711826136aa565b602582019050919050565b7f222c200000000000000000000000000000000000000000000000000000000000600082015250565b6000613752600383612c07565b915061375d8261371c565b600382019050919050565b7f2261747472696275746573223a205b7b2274726169745f74797065223a20226c60008201527f6576656c222c202276616c7565223a2000000000000000000000000000000000602082015250565b60006137c4603083612c07565b91506137cf82613768565b603082019050919050565b7f7d2c207b2274726169745f74797065223a20226f6666656e7369766520706f7760008201527f6572222c202276616c7565223a20000000000000000000000000000000000000602082015250565b6000613836602e83612c07565b9150613841826137da565b602e82019050919050565b7f7d2c207b2274726169745f74797065223a2022506879736963616c205374726560008201527f6e677468222c202276616c7565223a2000000000000000000000000000000000602082015250565b60006138a8603083612c07565b91506138b38261384c565b603082019050919050565b7f7d5d7d0000000000000000000000000000000000000000000000000000000000600082015250565b60006138f4600383612c07565b91506138ff826138be565b600382019050919050565b6000613915826136f9565b91506139218287612c5e565b915061392c82613745565b9150613937826137b7565b91506139438286612c5e565b915061394e82613829565b915061395a8285612c5e565b91506139658261389b565b91506139718284612c5e565b915061397c826138e7565b915081905095945050505050565b6000613995826124f5565b91506139a0836124f5565b9250826139b0576139af612ba7565b5b828204905092915050565b60006139c6826124f5565b91506139d1836124f5565b92508282026139df816124f5565b915082820484148315176139f6576139f5612af7565b5b5092915050565b7f45524337323155524953746f726167653a2055524920736574206f66206e6f6e60008201527f6578697374656e7420746f6b656e000000000000000000000000000000000000602082015250565b6000613a59602e8361244e565b9150613a64826139fd565b604082019050919050565b60006020820190508181036000830152613a8881613a4c565b9050919050565b60006020601f8301049050919050565b600082821b905092915050565b600060088302613adc7fffffffffffffffffffffffffffffffffffffffffffffffffffffffffffffffff82613a9f565b613ae68683613a9f565b95508019841693508086168417925050509392505050565b6000613b19613b14613b0f846124f5565b612ce4565b6124f5565b9050919050565b6000819050919050565b613b3383613afe565b613b47613b3f82613b20565b848454613aac565b825550505050565b600090565b613b5c613b4f565b613b67818484613b2a565b505050565b5b81811015613b8b57613b80600082613b54565b600181019050613b6d565b5050565b601f821115613bd057613ba181612fc3565b613baa84613a8f565b81016020851015613bb9578190505b613bcd613bc585613a8f565b830182613b6c565b50505b505050565b600082821c905092915050565b6000613bf360001984600802613bd5565b1980831691505092915050565b6000613c0c8383613be2565b9150826002028217905092915050565b613c2582612443565b67ffffffffffffffff811115613c3e57613c3d612740565b5b613c4882546129a2565b613c53828285613b8f565b600060209050601f831160018114613c865760008415613c74578287015190505b613c7e8582613c00565b865550613ce6565b601f198416613c9486612fc3565b60005b82811015613cbc57848901518255600182019150602085019450602081019050613c97565b86831015613cd95784890151613cd5601f891682613be2565b8355505b6001600288020188555050505b505050505050565b6000613cf9826124f5565b91507fffffffffffffffffffffffffffffffffffffffffffffffffffffffffffffffff8203613d2b57613d2a612af7565b5b600182019050919050565b7f4552433732313a207472616e736665722066726f6d20696e636f72726563742060008201527f6f776e6572000000000000000000000000000000000000000000000000000000602082015250565b6000613d9260258361244e565b9150613d9d82613d36565b604082019050919050565b60006020820190508181036000830152613dc181613d85565b9050919050565b7f4552433732313a207472616e7366657220746f20746865207a65726f2061646460008201527f7265737300000000000000000000000000000000000000000000000000000000602082015250565b6000613e2460248361244e565b9150613e2f82613dc8565b604082019050919050565b60006020820190508181036000830152613e5381613e17565b9050919050565b7f4552433732313a20617070726f766520746f2063616c6c657200000000000000600082015250565b6000613e9060198361244e565b9150613e9b82613e5a565b602082019050919050565b60006020820190508181036000830152613ebf81613e83565b9050919050565b7f4552433732313a207472616e7366657220746f206e6f6e20455243373231526560008201527f63656976657220696d706c656d656e7465720000000000000000000000000000602082015250565b6000613f2260328361244e565b9150613f2d82613ec6565b604082019050919050565b60006020820190508181036000830152613f5181613f15565b9050919050565b600081519050919050565b600082825260208201905092915050565b6000613f7f82613f58565b613f898185613f63565b9350613f9981856020860161245f565b613fa281612489565b840191505092915050565b6000608082019050613fc2600083018761258a565b613fcf602083018661258a565b613fdc60408301856126a0565b8181036060830152613fee8184613f74565b905095945050505050565b600081519050614008816123b4565b92915050565b6000602082840312156140245761402361237e565b5b600061403284828501613ff9565b91505092915050565b7f4552433732313a206d696e7420746f20746865207a65726f2061646472657373600082015250565b600061407160208361244e565b915061407c8261403b565b602082019050919050565b600060208201905081810360008301526140a081614064565b9050919050565b7f4552433732313a20746f6b656e20616c7265616479206d696e74656400000000600082015250565b60006140dd601c8361244e565b91506140e8826140a7565b602082019050919050565b6000602082019050818103600083015261410c816140d0565b905091905056fe4142434445464748494a4b4c4d4e4f505152535455565758595a6162636465666768696a6b6c6d6e6f707172737475767778797a303132333435363738392b2fa2646970667358221220bdd9ba4ba2b8023e06eb447e6b20c7609922af7391604ce35387a047f8607dd964736f6c63430008130033",
  "linkReferences": {},
  "deployedLinkReferences": {}
}